S0160000656570726F6D20746F207A65726F2E73726563A3
S113000045C000004BC0000049C0000047C00000CC
S113001045C0000043C0000041C000003FC00000D4
S11300203DC000003BC0000039C0000037C00000E4
S113003035C0000033C0000031C000002FC00000F4
S11300402DC000002BC0000029C0000027C0000004
S113005025C0000023C0000021C000001FC0000014
S11300601DC000001BC0000019C0000017C0000024
S113007015C0000013C0000011C000000FC0000034
S11300800DC000000BC0000009C0000011241FBEF9
S1130090CFEFD0E4DEBFCDBF02D01AC0B1CF60E055
S11300A080E090E003D080E090E00895262FF99955
S11300B0FECF92BD81BDF89A019700B4021639F0C3
S11300C01FBA20BD0FB6F894FA9AF99A0FBE089594
S10700D0F894FFCFCE
S9030000FC
