:1000000045C0000060C000005EC000005CC0000091
:100010005AC0000058C0000056C0000054C0000084
:1000200052C0000050C000004EC000004CC0000094
:100030004AC00000E9C0000046C0000044C0000003
:1000400042C0000040C000003EC000003CC00000B4
:100050003AC0000038C0000036C0000034C00000C4
:1000600032C0000030C000002EC000002CC00000D4
:100070002AC0000028C0000026C0000024C00000E4
:1000800022C0000020C000001EC0000011241FBEBE
:10009000CFEFD0E4DEBFCDBF11E0A0E0B1E0EAE4F5
:1000A000FCE000E00BBF02C007900D92AC37B10737
:1000B000D9F723E0ACE7B1E001C01D92A938B2073F
:1000C000E1F716D4C0C59CCFFC010FB6F89460913F
:1000D00085037091860380918703909188030FBEFA
:1000E000309721F06083718382839383089518167B
:1000F00019065CF00895000021503109E1F74F5FC7
:100100005F4F8417950719F4089540E050E027E009
:1001100033E0F1CF2E988BB92F9A00002F9882E010
:1001200090E0E5CF089581E0F5CF0895813118F48E
:100130008158F0CF08958155EDCF089584E690E081
:10014000D6DF88E3E7DF86E0E5DF8FE0E3DF81E00D
:10015000E1DF8AE090E0CBCF08952E9A8BB92F9AF9
:1001600000002F9881E090E0C2CF08950F931F9375
:10017000CF93DF93182FEB01D6DF8881882351F0CE
:1001800001E0010F812FD2DF8991E7DF102F8881F5
:100190008111F6CFDF91CF911F910F910895609358
:1001A0000501709306018093070190930801609305
:1001B0008201709383018093840190938501089557
:1001C0008BE0809381008DE790E09093890080938D
:1001D000880082E080936F00109285001092840066
:1001E0008091050190910601A0910701B09108014D
:1001F0008093820190938301A0938401B093850141
:100200008FB780688FBF08951F920F920FB60F921D
:1002100011248F939F93AF93BF938091820190910C
:100220008301A0918401B09185010197A109B109D1
:100230008093820190938301A0938401B093850100
:10024000892B8A2B8B2B99F481E0809386018091F6
:10025000050190910601A0910701B09108018093DA
:10026000820190938301A0938401B0938501BF9193
:10027000AF919F918F910F900FBE0F901F90189587
:1002800020E030E058E0E82FF0E055B945B1BF017B
:10029000022E02C0759567950A94E2F7962F917029
:1002A000942B95B9299A2F5F3F4F2830310569F774
:1002B0002A9A15B8089518B880E0E2CF089580EF23
:1002C00088B98FE0DDCF08958FE088B9D9CF089540
:1002D00080EF88B9D5CF08958FE088B980EFD0CF6F
:1002E00008958FEF88B980E0CBCF0895FF920F93E8
:1002F0001F93CF93DF938C01F62E80E40BDFE80190
:10030000085F1F4F899129DFC017D107D9F78F2DBB
:100310000DDF80E022DFDF91CF911F910F91FF90E1
:1003200008958091EF018230F1F128F4882341F0A3
:100330008130B1F141C08330C9F18430D1F13CC08A
:10034000E0917D01F0E0EE0FFF1FEE0FFF1FE45183
:10035000FE4F80819181A281B38181309105A105F9
:10036000B10521F481E08093EF013EC08230910518
:10037000A105B10521F482E08093EF0137C08330FD
:100380009105A105B10521F483E08093EF0130C010
:100390000497A105B105E9F484E08093EF012AC038
:1003A0001092EF0116C01092EF0113C01092EF01EE
:1003B00010C01092EF010DC08230C1F028F48823E4
:1003C00041F08130C1F410C0833091F0843091F05D
:1003D000089571DF80917D0190917F01981758F009
:1003E0008F5F80937D0108956ACF08956DCF089542
:1003F0006FCF089571CF089580918103823009F401
:100400006AC030F4882369F0813009F449C073C0B0
:10041000843009F468C008F462C0853009F467C00C
:100420006AC080918403882309F4AAC09091830351
:100430009111B1C0209189012111ADC09091880125
:100440009111A8C082E08093810366C080918901E8
:1004500081111CC080918801811118C083E08093B4
:10046000810367C080918801811110C084E080936E
:1004700081036CC020918801222341F0811106C0C4
:10048000911104C085E0809381036DC080917C014F
:1004900090917F0189133EC08F5F80937C013AC0A9
:1004A0008091840381110FC08091830381110DC05D
:1004B0008091890181110BC081E090918801911197
:1004C00007C080E005C081E003C081E001C081E099
:1004D0008093810310C081E080938103089581E0BF
:1004E00080938103089581E080938103089581E0E2
:1004F000809381030895809181038330D1F028F4A3
:10050000882341F0823041F008958430F9F085303D
:1005100051F10895D0CE0895D2DE80917C01E82F6C
:10052000F0E0E657FE4F91E090838F5F80937C016F
:100530000895CADE80917C01E82FF0E0E657FE4F77
:1005400092E090838F5F80937C010895C1DE80915B
:100550007C01E82FF0E0E657FE4F93E090838F5F39
:1005600080937C010895B8DE80917C01E82FF0E053
:10057000E657FE4F94E090838F5F80937C0108954F
:1005800090918303911162CF90918901992309F48D
:1005900071CF68CF922F20918901222309F46ACF6D
:1005A00075CFB2D283709078992324F401978C6F21
:1005B0009F6F019601960895CF93DF93C0917F01BD
:1005C000D0E0EFDFCC0FDD1FCC0FDD1FC051DE4FC1
:1005D000092E000CAA0BBB0B88839983AA83BB83CB
:1005E00080917F018F5F80937F01DF91CF9108958C
:1005F00080918003813069F018F0823071F014C06E
:1006000081E09091EE01911101C080E08093800320
:100610000BC082E08093800308959091EE019111C8
:1006200001C080E08093800380918003813041F499
:1006300010927F0180938101BFDF84EF91E057CD5D
:100640000895CF93DF9320917F01222369F1809158
:100650008A0190E0A0E0B0E04091F0015091F101FA
:100660006091F2017091F301481759076A077B07FF
:10067000F1F4C4EFD1E0EBE8F1E030E026573E4F73
:100680000DC04991599169917991819190E0A0E0D3
:10069000B0E0481759076A077B0761F4E217F307D0
:1006A00081F781E090E008C081E090E005C080E043
:1006B00090E002C080E090E0DF91CF910895CF9369
:1006C000009749F06AE070E0B1D1C82FCB01F7DFA5
:1006D00080E38C0F42DDCF910895AF92BF92CF920D
:1006E000DF92EF92FF920F931F93CF93DF93CDB7DB
:1006F000DEB7CF5FD1090FB6F894DEBF0FBECDBF16
:100700000DB71EB7809104012DB73EB7281B3109E4
:100710000FB6F8943EBF0FBE2DBF8DB79EB70196A2
:100720007C01809187018130C1F028F0823021F175
:10073000833091F13EC080918001882321F083E0D5
:1007400080938701A1C080918101811102C081E065
:1007500001C082E0809387012CC090918001992391
:1007600021F083E0809387018FC0909181019111E6
:1007700082E0809387011DC090918001992321F030
:1007800083E08093870180C090918101911101C025
:1007900081E0809387010DC080918001811174C038
:1007A00080918101811102C081E001C082E08093CB
:1007B000870180918701823009F44DC0833009F4AC
:1007C00063C0813009F07DC0AEDCC0900401A09010
:1007D0007E01D12CB12CB5016E5A7E4FA601C70106
:1007E000ACD1F701EC0DFD1D108292E0C91AD108C1
:1007F000AC14BD0414F010927E019E012F5F3F4F98
:100800006901D9010D900020E9F7119781E1E1E438
:10081000F1E001900D928A95E1F7B701C90182D10B
:10082000B60181E0A3DC61E084E791E05FDD62E096
:1008300084E791E05BDD6FE084E791E057DD60E104
:1008400084E791E053DD82E271DC80917E018F5F6D
:1008500080937E0136C069E071E081E087DC87E04B
:1008600065DC80917F01813019F480E376DC03C080
:1008700090E0019724DF8CE159DC80918203805D58
:100880006CDC82E253DC1DC04EDC65E271E081E08D
:100890006DDC61E08CE691E029DD62E08CE691E0C0
:1008A00025DD6FE08CE691E021DD60E18CE691E0F2
:1008B0001DDD8CE13BDC80918203805D4EDC82E2B9
:1008C00035DC0FB6F8941EBF0FBE0DBFC150DF4F11
:1008D0000FB6F894DEBF0FBECDBFDF91CF911F9151
:1008E0000F91FF90EF90DF90CF90BF90AF90089561
:1008F00080E090E031D18093820380E090E0E4DBFF
:10090000CB0105D111B88FEF82B984B915B887B979
:1009100018B88AB91BB81092800310928701109200
:10092000EF01109281030ADCFEDB6AEF70E080E0E9
:1009300090E035DC45DCC1E080B18C27817080938C
:10094000840380B1809582708093830380B1809509
:1009500084708093890180B180958870809388012C
:1009600080B1809580718093EE01B7DE8091800127
:10097000882309F456C08091EE01882309F44AC007
:100980001092800110927F014CC0ABDC31DE80916F
:100990008101882309F43EC08091800181113AC011
:1009A00080917F0190917D01891738F0BADC8091A8
:1009B0007F0190917D01891728F490917C0189171E
:1009C00038F01ADD90917C0180917F01891710F534
:1009D00038DE892B31F0F0DD10927D0110927C0120
:1009E000ABCF7FDC80917F0190918203981750F408
:1009F0006FEF680F80E090E0B7D080E090E0ACD07F
:100A000080938203C093800110927D0110927C013B
:100A100010928101809186018823E1F31092860172
:100A20008BCF809181018111B7CFAFCF97FB072E7C
:100A300016F4009406D077FD08D00BD007FC05D043
:100A40003EF4909581959F4F0895709561957F4FE5
:100A50000895AA1BBB1B51E107C0AA1FBB1FA61705
:100A6000B70710F0A61BB70B881F991F5A95A9F757
:100A700080959095BC01CD0108958F929F92AF9281
:100A8000BF92CF92DF92EF92FF92CF93DF93EC0170
:100A9000688179818A819B81611571058105910544
:100AA00021F464E279ED8BE597E02DE133EF41E04D
:100AB00050E06CD049015A019B01AC01A7EAB1E4B6
:100AC00081D06B017C01ACEEB4EFA501940186D01E
:100AD000DC01CB018C0D9D1DAE1DBF1DB7FF03C0FA
:100AE0000197A109B04888839983AA83BB839F7724
:100AF000DF91CF91FF90EF90DF90CF90BF90AF90BC
:100B00009F908F900895B9CF80E091E0B6CFA0E09C
:100B1000B0E08093000190930101A0930201B09393
:100B200003010895FB01DC010D900020E9F7119706
:100B300001900D920020E1F70895FB01DC01415086
:100B4000504048F001900D920020C9F701C01D925D
:100B500041505040E0F70895F999FECF92BD81BD14
:100B6000F89A992780B50895262FF999FECF92BD5E
:100B700081BDF89A019700B4021639F01FBA20BD62
:100B80000FB6F894FA9AF99A0FBE0895052E97FBBE
:100B900016F400940FD057FD05D024D007FC02D0E6
:100BA00046F408C050954095309521953F4F4F4FE2
:100BB0005F4F089590958095709561957F4F8F4F09
:100BC0009F4F089531D0A59F900DB49F900DA49F85
:100BD000800D911D11240895B7FFF4CFF3DF821B20
:100BE000930B0895A1E21A2EAA1BBB1BFD010DC099
:100BF000AA1FBB1FEE1FFF1FA217B307E407F507CD
:100C000020F0A21BB30BE40BF50B661F771F881FA8
:100C1000991F1A9469F760957095809590959B013E
:100C2000AC01BD01CF010895A29FB001B39FC001E7
:100C3000A39F700D811D1124911DB29F700D811D08
:0A0C40001124911D0895F894FFCFD0
:100C4A00010000001A0100000053636F72653A2028
:100C5A002020202020202020204869676820536314
:100C6A006F72653A0020202020596F75204C6F73EF
:100C7A006520202020486967682053636F72653AAF
:100C8A000020202053696D6F6E20536179732020F4
:100C9A0020005072657373207468652062757474DD
:100CAA006F6E20746F207374617274000A0A0A0AE4
:0C0CBA00000E1100000A0A0000110E00DC
:00000001FF
